:100000000C9434000C9449000C9449000C94490061
:100010000C9449000C9449000C9449000C9449003C
:100020000C9449000C9449000C9449000C9449002C
:100030000C9449000C9449000C9449000C9449001C
:100040000C9449000C9449000C9449000C9449000C
:100050000C9449000C9449000C9449000C944900FC
:100060000C9449000C94490011241FBECFEFD8E036
:10007000DEBFCDBF11E0A0E0B1E0EEEAF3E002C0E8
:1000800005900D92A030B107D9F70E944B000C9457
:10009000D5010C9400008F92AF92CF92EF920F9304
:1000A000CF93DF93CDB7DEB768970FB6F894DEBF76
:1000B0000FBECDBF8CE38AB987E084B91F921F922F
:1000C0001F92812C85E0A82E94E0C92E23E0E22E19
:1000D00002E022E041E060E0CE0101960E948A0049
:1000E00020E142E064E0CE0101960E94A6010F905B
:1000F0000F900F9080E090E068960FB6F894DEBF06
:100100000FBECDBFDF91CF910F91EF90CF90AF9009
:100110008F9008958F92AF92CF92EF920F93CF93DB
:10012000DF93CDB7DEB7FC01608341832283038375
:10013000E482C582A68287828A8580878B858187B3
:100140008C858287DF91CF910F91EF90CF90AF9008
:100150008F900895FC0195B121E030E0A901028063
:1001600002C0440F551F0A94E2F7842F809589231B
:1001700085B985E08A95F1F7000045B1C901028093
:1001800002C0880F991F0A94E2F7842B85B995E085
:100190009A95F1F7000095B1028002C0220F331F3B
:1001A0000A94E2F72095292325B98FE891E0019779
:1001B000F1F700C000000895EF92FF920F931F9394
:1001C000CF93DF93EC01442369F04130B9F425B1BA
:1001D00081E090E0088002C0880F991F0A94E2F73E
:1001E000822B0BC025B181E090E0088002C0880F0F
:1001F000991F0A94E2F78095822385B98D85062F91
:1002000010E084FD62C07E01FE0184E090E061E0C8
:1002100070E09801082E02C0359527950A94E2F700
:1002200020FF0AC04BB19B01038002C0220F331F85
:100230000A94E2F7242B0BC03BB1AB01038002C050
:10024000440F551F0A94E2F7242F209523232BB93E
:100250000196319688309105E1F6CE010E94AA0000
:1002600080E090E061E070E09801082E02C03595D2
:1002700027950A94E2F720FF0BC04BB19B01F701D1
:10028000038002C0220F331F0A94E2F7242B0CC014
:100290003BB1AB01F701038002C0440F551F0A9424
:1002A000E2F7242F209523232BB90196FFEFEF1AB5
:1002B000FF0A84309105C1F6CE01DF91CF911F91E5
:1002C0000F91FF90EF900C94AA00FE0180E090E067
:1002D00061E070E09801082E02C0359527950A94D8
:1002E000E2F720FF0AC04BB19B01038002C0220F3E
:1002F000331F0A94E2F7242B0BC03BB1AB01038000
:1003000002C0440F551F0A94E2F7242F209523239F
:100310002BB90196319688309105E1F6CDCF40E0BA
:100320000C94DC0061E00E948F018FE39FE1019754
:10033000F1F700C00000089562E00E948F018FE392
:100340009FE10197F1F700C000000895CF93DF937C
:10035000EC014E872F87188A80E4898B80E28D8795
:1003600086E08B878CE08C87683011F480E38D8782
:100370008D85413011F4877F01C088608D876D8540
:100380006B7F6D87CE010E948F016C85CE010E942C
:100390008F016B85CE010E948F01CE010E949201D8
:0E03A000CE01DF91CF910C949C01F894FFCF19
:00000001FF
